{
  "contractName": "supplyChain",
  "abi": [
    {
      "inputs": [],
      "payable": false,
      "stateMutability": "nonpayable",
      "type": "constructor"
    },
    {
      "anonymous": false,
      "inputs": [
        {
          "components": [
            {
              "internalType": "uint256",
              "name": "orderId",
              "type": "uint256"
            },
            {
              "internalType": "address payable",
              "name": "manufacturer",
              "type": "address"
            },
            {
              "internalType": "address payable",
              "name": "customer",
              "type": "address"
            },
            {
              "internalType": "address payable",
              "name": "transporter",
              "type": "address"
            },
            {
              "internalType": "uint256",
              "name": "orderdAt",
              "type": "uint256"
            },
            {
              "internalType": "uint256",
              "name": "customerConfirmedAt",
              "type": "uint256"
            },
            {
              "internalType": "uint256",
              "name": "transporterConfirmedAt",
              "type": "uint256"
            },
            {
              "internalType": "uint256",
              "name": "maxLeadTime",
              "type": "uint256"
            },
            {
              "internalType": "uint256",
              "name": "deliveredAt",
              "type": "uint256"
            },
            {
              "internalType": "int256",
              "name": "reccomendedTemp",
              "type": "int256"
            },
            {
              "internalType": "uint256",
              "name": "maxExeedAllowed",
              "type": "uint256"
            },
            {
              "internalType": "uint256",
              "name": "numberOfVaccines",
              "type": "uint256"
            },
            {
              "internalType": "uint256",
              "name": "vaccineCost",
              "type": "uint256"
            },
            {
              "internalType": "uint256",
              "name": "totalAmount",
              "type": "uint256"
            },
            {
              "internalType": "uint256",
              "name": "transportCost",
              "type": "uint256"
            },
            {
              "internalType": "uint256",
              "name": "lateDeliveryPanalty",
              "type": "uint256"
            },
            {
              "internalType": "int256[]",
              "name": "tempreture",
              "type": "int256[]"
            },
            {
              "internalType": "enum supplyChain.OrderStatus",
              "name": "status",
              "type": "uint8"
            }
          ],
          "indexed": false,
          "internalType": "struct supplyChain.Order",
          "name": "order",
          "type": "tuple"
        },
        {
          "indexed": false,
          "internalType": "string",
          "name": "message",
          "type": "string"
        }
      ],
      "name": "OrderAccepted",
      "type": "event"
    },
    {
      "anonymous": false,
      "inputs": [
        {
          "indexed": false,
          "internalType": "address",
          "name": "from",
          "type": "address"
        },
        {
          "components": [
            {
              "internalType": "uint256",
              "name": "orderId",
              "type": "uint256"
            },
            {
              "internalType": "address payable",
              "name": "manufacturer",
              "type": "address"
            },
            {
              "internalType": "address payable",
              "name": "customer",
              "type": "address"
            },
            {
              "internalType": "address payable",
              "name": "transporter",
              "type": "address"
            },
            {
              "internalType": "uint256",
              "name": "orderdAt",
              "type": "uint256"
            },
            {
              "internalType": "uint256",
              "name": "customerConfirmedAt",
              "type": "uint256"
            },
            {
              "internalType": "uint256",
              "name": "transporterConfirmedAt",
              "type": "uint256"
            },
            {
              "internalType": "uint256",
              "name": "maxLeadTime",
              "type": "uint256"
            },
            {
              "internalType": "uint256",
              "name": "deliveredAt",
              "type": "uint256"
            },
            {
              "internalType": "int256",
              "name": "reccomendedTemp",
              "type": "int256"
            },
            {
              "internalType": "uint256",
              "name": "maxExeedAllowed",
              "type": "uint256"
            },
            {
              "internalType": "uint256",
              "name": "numberOfVaccines",
              "type": "uint256"
            },
            {
              "internalType": "uint256",
              "name": "vaccineCost",
              "type": "uint256"
            },
            {
              "internalType": "uint256",
              "name": "totalAmount",
              "type": "uint256"
            },
            {
              "internalType": "uint256",
              "name": "transportCost",
              "type": "uint256"
            },
            {
              "internalType": "uint256",
              "name": "lateDeliveryPanalty",
              "type": "uint256"
            },
            {
              "internalType": "int256[]",
              "name": "tempreture",
              "type": "int256[]"
            },
            {
              "internalType": "enum supplyChain.OrderStatus",
              "name": "status",
              "type": "uint8"
            }
          ],
          "indexed": false,
          "internalType": "struct supplyChain.Order",
          "name": "order",
          "type": "tuple"
        },
        {
          "indexed": false,
          "internalType": "string",
          "name": "message",
          "type": "string"
        }
      ],
      "name": "OrderCreated",
      "type": "event"
    },
    {
      "anonymous": false,
      "inputs": [
        {
          "components": [
            {
              "internalType": "uint256",
              "name": "orderId",
              "type": "uint256"
            },
            {
              "internalType": "address payable",
              "name": "manufacturer",
              "type": "address"
            },
            {
              "internalType": "address payable",
              "name": "customer",
              "type": "address"
            },
            {
              "internalType": "address payable",
              "name": "transporter",
              "type": "address"
            },
            {
              "internalType": "uint256",
              "name": "orderdAt",
              "type": "uint256"
            },
            {
              "internalType": "uint256",
              "name": "customerConfirmedAt",
              "type": "uint256"
            },
            {
              "internalType": "uint256",
              "name": "transporterConfirmedAt",
              "type": "uint256"
            },
            {
              "internalType": "uint256",
              "name": "maxLeadTime",
              "type": "uint256"
            },
            {
              "internalType": "uint256",
              "name": "deliveredAt",
              "type": "uint256"
            },
            {
              "internalType": "int256",
              "name": "reccomendedTemp",
              "type": "int256"
            },
            {
              "internalType": "uint256",
              "name": "maxExeedAllowed",
              "type": "uint256"
            },
            {
              "internalType": "uint256",
              "name": "numberOfVaccines",
              "type": "uint256"
            },
            {
              "internalType": "uint256",
              "name": "vaccineCost",
              "type": "uint256"
            },
            {
              "internalType": "uint256",
              "name": "totalAmount",
              "type": "uint256"
            },
            {
              "internalType": "uint256",
              "name": "transportCost",
              "type": "uint256"
            },
            {
              "internalType": "uint256",
              "name": "lateDeliveryPanalty",
              "type": "uint256"
            },
            {
              "internalType": "int256[]",
              "name": "tempreture",
              "type": "int256[]"
            },
            {
              "internalType": "enum supplyChain.OrderStatus",
              "name": "status",
              "type": "uint8"
            }
          ],
          "indexed": false,
          "internalType": "struct supplyChain.Order",
          "name": "order",
          "type": "tuple"
        },
        {
          "indexed": false,
          "internalType": "string",
          "name": "message",
          "type": "string"
        }
      ],
      "name": "OrderRejected",
      "type": "event"
    },
    {
      "constant": false,
      "inputs": [
        {
          "internalType": "address payable",
          "name": "manufacturer",
          "type": "address"
        },
        {
          "internalType": "uint256",
          "name": "numberOfVacines",
          "type": "uint256"
        },
        {
          "internalType": "uint256",
          "name": "leadTime",
          "type": "uint256"
        },
        {
          "internalType": "uint256",
          "name": "latePenalty",
          "type": "uint256"
        }
      ],
      "name": "createOrder",
      "outputs": [],
      "payable": false,
      "stateMutability": "nonpayable",
      "type": "function"
    },
    {
      "constant": false,
      "inputs": [
        {
          "internalType": "uint256",
          "name": "orderId",
          "type": "uint256"
        },
        {
          "internalType": "uint256",
          "name": "price",
          "type": "uint256"
        },
        {
          "internalType": "int256",
          "name": "tempreture",
          "type": "int256"
        },
        {
          "internalType": "uint256",
          "name": "maxExeeds",
          "type": "uint256"
        }
      ],
      "name": "quotePrice",
      "outputs": [],
      "payable": false,
      "stateMutability": "nonpayable",
      "type": "function"
    },
    {
      "constant": false,
      "inputs": [
        {
          "internalType": "uint256",
          "name": "orderId",
          "type": "uint256"
        },
        {
          "internalType": "uint256",
          "name": "price",
          "type": "uint256"
        }
      ],
      "name": "quoteTransport",
      "outputs": [],
      "payable": false,
      "stateMutability": "nonpayable",
      "type": "function"
    },
    {
      "constant": false,
      "inputs": [
        {
          "internalType": "uint256",
          "name": "orderId",
          "type": "uint256"
        }
      ],
      "name": "confirmOrder",
      "outputs": [],
      "payable": true,
      "stateMutability": "payable",
      "type": "function"
    },
    {
      "constant": false,
      "inputs": [
        {
          "internalType": "uint256",
          "name": "orderId",
          "type": "uint256"
        }
      ],
      "name": "confirmTransporter",
      "outputs": [],
      "payable": true,
      "stateMutability": "payable",
      "type": "function"
    },
    {
      "constant": false,
      "inputs": [
        {
          "internalType": "uint256",
          "name": "orderId",
          "type": "uint256"
        }
      ],
      "name": "dispatchOrder",
      "outputs": [],
      "payable": true,
      "stateMutability": "payable",
      "type": "function"
    },
    {
      "constant": false,
      "inputs": [
        {
          "internalType": "uint256",
          "name": "orderId",
          "type": "uint256"
        },
        {
          "internalType": "int256",
          "name": "temp",
          "type": "int256"
        }
      ],
      "name": "updateTempreature",
      "outputs": [],
      "payable": false,
      "stateMutability": "nonpayable",
      "type": "function"
    },
    {
      "constant": false,
      "inputs": [
        {
          "internalType": "uint256",
          "name": "orderId",
          "type": "uint256"
        }
      ],
      "name": "completeOrder",
      "outputs": [],
      "payable": false,
      "stateMutability": "nonpayable",
      "type": "function"
    },
    {
      "constant": false,
      "inputs": [
        {
          "internalType": "uint256",
          "name": "orderId",
          "type": "uint256"
        }
      ],
      "name": "receiveOrder",
      "outputs": [],
      "payable": true,
      "stateMutability": "payable",
      "type": "function"
    }
  ],
  "bytecode": "0x608060405260006004553480156200001657600080fd5b50620000276200002d60201b60201c565b6200053f565b62000037620003eb565b6040518060600160405280732c913fdcc9bbdae915b05c9b4355faff1d8c464a73ffffffffffffffffffffffffffffffffffffffff1681526020016040518060400160405280600681526020017f5066697a6572000000000000000000000000000000000000000000000000000081525081526020016000815250905080600080836000015173ffffffffffffffffffffffffffffffffffffffff1673ffffffffffffffffffffffffffffffffffffffff16815260200190815260200160002060008201518160000160006101000a81548173ffffffffffffffffffffffffffffffffffffffff021916908373ffffffffffffffffffffffffffffffffffffffff16021790555060208201518160010190805190602001906200015c92919062000422565b506040820151816002015590505062000174620004a9565b6040518060600160405280739eeba9a1c21c671d8aace0a2e593af7d21b0202373ffffffffffffffffffffffffffffffffffffffff1681526020016040518060400160405280601481526020017f537269204c616e6b6120476f76656e726d656e740000000000000000000000008152508152602001600081525090508060016000836000015173ffffffffffffffffffffffffffffffffffffffff1673ffffffffffffffffffffffffffffffffffffffff16815260200190815260200160002060008201518160000160006101000a81548173ffffffffffffffffffffffffffffffffffffffff021916908373ffffffffffffffffffffffffffffffffffffffff16021790555060208201518160010190805190602001906200029a92919062000422565b5060408201518160020155905050620002b2620004e0565b6040518060600160405280735ab5b3abdd85be9caa19ec38aa461827ed15db7c73ffffffffffffffffffffffffffffffffffffffff1681526020016040518060400160405280600381526020017f44484c00000000000000000000000000000000000000000000000000000000008152508152602001600081525090508060026000836000015173ffffffffffffffffffffffffffffffffffffffff1673ffffffffffffffffffffffffffffffffffffffff16815260200190815260200160002060008201518160000160006101000a81548173ffffffffffffffffffffffffffffffffffffffff021916908373ffffffffffffffffffffffffffffffffffffffff1602179055506020820151816001019080519060200190620003d892919062000422565b5060408201518160020155905050505050565b6040518060600160405280600073ffffffffffffffffffffffffffffffffffffffff16815260200160608152602001600081525090565b828054600181600116156101000203166002900490600052602060002090601f016020900481019282601f106200046557805160ff191683800117855562000496565b8280016001018555821562000496579182015b828111156200049557825182559160200191906001019062000478565b5b509050620004a5919062000517565b5090565b6040518060600160405280600073ffffffffffffffffffffffffffffffffffffffff16815260200160608152602001600081525090565b6040518060600160405280600073ffffffffffffffffffffffffffffffffffffffff16815260200160608152602001600081525090565b6200053c91905b80821115620005385760008160009055506001016200051e565b5090565b90565b6129bc806200054f6000396000f3fe6080604052600436106100865760003560e01c80638335e683116100595780638335e683146101225780638ac7d79c1461014b57806397bab12f1461016757806398939e4a14610183578063b6adaaff1461019f57610086565b80630a0bec391461008b5780631fa2bb67146100a757806346152842146100d05780636f652e1a146100f9575b600080fd5b6100a560048036036100a09190810190611b0e565b6101c8565b005b3480156100b357600080fd5b506100ce60048036036100c99190810190611b37565b6103e2565b005b3480156100dc57600080fd5b506100f760048036036100f29190810190611b73565b61056f565b005b34801561010557600080fd5b50610120600480360361011b9190810190611aab565b61079b565b005b34801561012e57600080fd5b5061014960048036036101449190810190611baf565b610c6d565b005b61016560048036036101609190810190611b0e565b610e19565b005b610181600480360361017c9190810190611b0e565b611033565b005b61019d60048036036101989190810190611b0e565b61161a565b005b3480156101ab57600080fd5b506101c660048036036101c19190810190611b0e565b61179e565b005b60006003600083815260200190815260200160002090506000816000015411610226576040517f08c379a000000000000000000000000000000000000000000000000000000000815260040161021d906124c2565b60405180910390fd5b3373ffffffffffffffffffffffffffffffffffffffff168160030160009054906101000a900473ffffffffffffffffffffffffffffffffffffffff1673ffffffffffffffffffffffffffffffffffffffff16146102b8576040517f08c379a00000000000000000000000000000000000000000000000000000000081526004016102af90612582565b60405180910390fd5b600360088111156102c557fe5b8160110160009054906101000a900460ff1660088111156102e257fe5b14610322576040517f08c379a000000000000000000000000000000000000000000000000000000000815260040161031990612542565b60405180910390fd5b80600c01543414610368576040517f08c379a000000000000000000000000000000000000000000000000000000000815260040161035f90612522565b60405180910390fd5b42816006018190555060048160110160006101000a81548160ff0219169083600881111561039257fe5b021790555034600160003373ffffffffffffffffffffffffffffffffffffffff1673ffffffffffffffffffffffffffffffffffffffff168152602001908152602001600020600201819055505050565b60006003600084815260200190815260200160002090506000816000015411610440576040517f08c379a0000000000000000000000000000000000000000000000000000000008152600401610437906124c2565b60405180910390fd5b3373ffffffffffffffffffffffffffffffffffffffff168160030160009054906101000a900473ffffffffffffffffffffffffffffffffffffffff1673ffffffffffffffffffffffffffffffffffffffff16146104d2576040517f08c379a00000000000000000000000000000000000000000000000000000000081526004016104c990612582565b60405180910390fd5b600560088111156104df57fe5b8160110160009054906101000a900460ff1660088111156104fc57fe5b1461053c576040517f08c379a000000000000000000000000000000000000000000000000000000000815260040161053390612542565b60405180910390fd5b80601001829080600181540180825580915050906001820390600052602060002001600090919290919091505550505050565b600060036000848152602001908152602001600020905060008160000154116105cd576040517f08c379a00000000000000000000000000000000000000000000000000000000081526004016105c4906124c2565b60405180910390fd5b3373ffffffffffffffffffffffffffffffffffffffff16600260003373ffffffffffffffffffffffffffffffffffffffff1673ffffffffffffffffffffffffffffffffffffffff16815260200190815260200160002060000160009054906101000a900473ffffffffffffffffffffffffffffffffffffffff1673ffffffffffffffffffffffffffffffffffffffff161461069d576040517f08c379a000000000000000000000000000000000000000000000000000000000815260040161069490612582565b60405180910390fd5b600160088111156106aa57fe5b8160110160009054906101000a900460ff1660088111156106c757fe5b14610707576040517f08c379a00000000000000000000000000000000000000000000000000000000081526004016106fe906125c2565b60405180910390fd5b670de0b6b3a7640000820281600e0181905550338160030160006101000a81548173ffffffffffffffffffffffffffffffffffffffff021916908373ffffffffffffffffffffffffffffffffffffffff16021790555080600e015481600c01540181600d018190555060028160110160006101000a81548160ff0219169083600881111561079157fe5b0217905550505050565b3373ffffffffffffffffffffffffffffffffffffffff16600160003373ffffffffffffffffffffffffffffffffffffffff1673ffffffffffffffffffffffffffffffffffffffff16815260200190815260200160002060000160009054906101000a900473ffffffffffffffffffffffffffffffffffffffff1673ffffffffffffffffffffffffffffffffffffffff161461086b576040517f08c379a0000000000000000000000000000000000000000000000000000000008152600401610862906125a2565b60405180910390fd5b8373ffffffffffffffffffffffffffffffffffffffff166000808673ffffffffffffffffffffffffffffffffffffffff1673ffffffffffffffffffffffffffffffffffffffff16815260200190815260200160002060000160009054906101000a900473ffffffffffffffffffffffffffffffffffffffff1673ffffffffffffffffffffffffffffffffffffffff161461093a576040517f08c379a0000000000000000000000000000000000000000000000000000000008152600401610931906125e2565b60405180910390fd5b6000831161097d576040517f08c379a0000000000000000000000000000000000000000000000000000000008152600401610974906124e2565b60405180910390fd5b600460008154809291906001019190505550610997611922565b60045481600001818152505033816040019073ffffffffffffffffffffffffffffffffffffffff16908173ffffffffffffffffffffffffffffffffffffffff168152505084816020019073ffffffffffffffffffffffffffffffffffffffff16908173ffffffffffffffffffffffffffffffffffffffff1681525050428160800181815250508381610160018181525050828160e001818152505060058161014001818152505081816101e001818152505060008161022001906008811115610a5c57fe5b90816008811115610a6957fe5b81525050806003600060045481526020019081526020016000206000820151816000015560208201518160010160006101000a81548173ffffffffffffffffffffffffffffffffffffffff021916908373ffffffffffffffffffffffffffffffffffffffff16021790555060408201518160020160006101000a81548173ffffffffffffffffffffffffffffffffffffffff021916908373ffffffffffffffffffffffffffffffffffffffff16021790555060608201518160030160006101000a81548173ffffffffffffffffffffffffffffffffffffffff021916908373ffffffffffffffffffffffffffffffffffffffff1602179055506080820151816004015560a0820151816005015560c0820151816006015560e082015181600701556101008201518160080155610120820151816009015561014082015181600a015561016082015181600b015561018082015181600c01556101a082015181600d01556101c082015181600e01556101e082015181600f0155610200820151816010019080519060200190610bff9291906119fa565b506102208201518160110160006101000a81548160ff02191690836008811115610c2557fe5b02179055509050507fbea8ae9b979443a1caab1b0abc36f1f5aaa8787a6cdeeaf2ffe8e3308ca615863382604051610c5e92919061247f565b60405180910390a15050505050565b60006003600086815260200190815260200160002090506000816000015411610ccb576040517f08c379a0000000000000000000000000000000000000000000000000000000008152600401610cc2906124c2565b60405180910390fd5b3373ffffffffffffffffffffffffffffffffffffffff168160010160009054906101000a900473ffffffffffffffffffffffffffffffffffffffff1673ffffffffffffffffffffffffffffffffffffffff1614610d5d576040517f08c379a0000000000000000000000000000000000000000000000000000000008152600401610d5490612582565b60405180910390fd5b60006008811115610d6a57fe5b8160110160009054906101000a900460ff166008811115610d8757fe5b14610dc7576040517f08c379a0000000000000000000000000000000000000000000000000000000008152600401610dbe90612502565b60405180910390fd5b670de0b6b3a7640000840281600c01819055508281600901819055508181600a018190555060018160110160006101000a81548160ff02191690836008811115610e0d57fe5b02179055505050505050565b60006003600083815260200190815260200160002090506000816000015411610e77576040517f08c379a0000000000000000000000000000000000000000000000000000000008152600401610e6e906124c2565b60405180910390fd5b3373ffffffffffffffffffffffffffffffffffffffff168160020160009054906101000a900473ffffffffffffffffffffffffffffffffffffffff1673ffffffffffffffffffffffffffffffffffffffff1614610f09576040517f08c379a0000000000000000000000000000000000000000000000000000000008152600401610f0090612582565b60405180910390fd5b60026008811115610f1657fe5b8160110160009054906101000a900460ff166008811115610f3357fe5b14610f73576040517f08c379a0000000000000000000000000000000000000000000000000000000008152600401610f6a90612542565b60405180910390fd5b80600d01543414610fb9576040517f08c379a0000000000000000000000000000000000000000000000000000000008152600401610fb090612562565b60405180910390fd5b42816005018190555060038160110160006101000a81548160ff02191690836008811115610fe357fe5b021790555034600160003373ffffffffffffffffffffffffffffffffffffffff1673ffffffffffffffffffffffffffffffffffffffff168152602001908152602001600020600201819055505050565b60006003600083815260200190815260200160002090506000816000015411611091576040517f08c379a0000000000000000000000000000000000000000000000000000000008152600401611088906124c2565b60405180910390fd5b3373ffffffffffffffffffffffffffffffffffffffff168160020160009054906101000a900473ffffffffffffffffffffffffffffffffffffffff1673ffffffffffffffffffffffffffffffffffffffff1614611123576040517f08c379a000000000000000000000000000000000000000000000000000000000815260040161111a90612582565b60405180910390fd5b6006600881111561113057fe5b8160110160009054906101000a900460ff16600881111561114d57fe5b1461118d576040517f08c379a000000000000000000000000000000000000000000000000000000000815260040161118490612542565b60405180910390fd5b6060428260080181905550600080905060005b83601001805490508110156111ea5783600901548460100182815481106111c357fe5b906000526020600020015413156111dd5781806001019250505b80806001019150506111a0565b5082600a0154811115611357578260020160009054906101000a900473ffffffffffffffffffffffffffffffffffffffff1673ffffffffffffffffffffffffffffffffffffffff166108fc84600d01549081150290604051600060405180830381858888f19350505050158015611265573d6000803e3d6000fd5b508260010160009054906101000a900473ffffffffffffffffffffffffffffffffffffffff1673ffffffffffffffffffffffffffffffffffffffff166108fc84600c01549081150290604051600060405180830381858888f193505050501580156112d4573d6000803e3d6000fd5b5060088360110160006101000a81548160ff021916908360088111156112f657fe5b02179055506040518060800160405280605e815260200161291c605e913991507f0cc78f915077e5d56d90db418f419304345e11377046e7c1a69521a23ae7d7c68383604051611347929190612602565b60405180910390a1505050611617565b60008360050154846008015403905060006236ee80828161137457fe5b0490506000809050856007015482111561142657606486600f015487600d0154028161139c57fe5b0490508560020160009054906101000a900473ffffffffffffffffffffffffffffffffffffffff1673ffffffffffffffffffffffffffffffffffffffff166108fc829081150290604051600060405180830381858888f19350505050158015611409573d6000803e3d6000fd5b506040518060800160405280606081526020016128bc6060913994505b8560010160009054906101000a900473ffffffffffffffffffffffffffffffffffffffff1673ffffffffffffffffffffffffffffffffffffffff166108fc87600c01549081150290604051600060405180830381858888f19350505050158015611494573d6000803e3d6000fd5b508560030160009054906101000a900473ffffffffffffffffffffffffffffffffffffffff1673ffffffffffffffffffffffffffffffffffffffff166108fc82600260008a60030160009054906101000a900473ffffffffffffffffffffffffffffffffffffffff1673ffffffffffffffffffffffffffffffffffffffff1673ffffffffffffffffffffffffffffffffffffffff1681526020019081526020016000206002015489600e015401039081150290604051600060405180830381858888f1935050505015801561156d573d6000803e3d6000fd5b5060078660110160006101000a81548160ff0219169083600881111561158f57fe5b02179055506000855114156115d7576040518060400160405280601481526020017f204f726465722069732061636365707465642e2e00000000000000000000000081525094505b7f54ae96748da62f9cc330564930f9386394ddbaee145a6c0d1c6c67a150c316f88686604051611608929190612602565b60405180910390a15050505050505b50565b60006003600083815260200190815260200160002090506000816000015411611678576040517f08c379a000000000000000000000000000000000000000000000000000000000815260040161166f906124c2565b60405180910390fd5b3373ffffffffffffffffffffffffffffffffffffffff168160010160009054906101000a900473ffffffffffffffffffffffffffffffffffffffff1673ffffffffffffffffffffffffffffffffffffffff161461170a576040517f08c379a000000000000000000000000000000000000000000000000000000000815260040161170190612582565b60405180910390fd5b6004600881111561171757fe5b8160110160009054906101000a900460ff16600881111561173457fe5b14611774576040517f08c379a000000000000000000000000000000000000000000000000000000000815260040161176b90612542565b60405180910390fd5b60058160110160006101000a81548160ff0219169083600881111561179557fe5b02179055505050565b600060036000838152602001908152602001600020905060008160000154116117fc576040517f08c379a00000000000000000000000000000000000000000000000000000000081526004016117f3906124c2565b60405180910390fd5b3373ffffffffffffffffffffffffffffffffffffffff168160030160009054906101000a900473ffffffffffffffffffffffffffffffffffffffff1673ffffffffffffffffffffffffffffffffffffffff161461188e576040517f08c379a000000000000000000000000000000000000000000000000000000000815260040161188590612582565b60405180910390fd5b6005600881111561189b57fe5b8160110160009054906101000a900460ff1660088111156118b857fe5b146118f8576040517f08c379a00000000000000000000000000000000000000000000000000000000081526004016118ef90612542565b60405180910390fd5b60068160110160006101000a81548160ff0219169083600881111561191957fe5b02179055505050565b60405180610240016040528060008152602001600073ffffffffffffffffffffffffffffffffffffffff168152602001600073ffffffffffffffffffffffffffffffffffffffff168152602001600073ffffffffffffffffffffffffffffffffffffffff16815260200160008152602001600081526020016000815260200160008152602001600081526020016000815260200160008152602001600081526020016000815260200160008152602001600081526020016000815260200160608152602001600060088111156119f457fe5b81525090565b828054828255906000526020600020908101928215611a36579160200282015b82811115611a35578251825591602001919060010190611a1a565b5b509050611a439190611a47565b5090565b611a6991905b80821115611a65576000816000905550600101611a4d565b5090565b90565b600081359050611a7b81612876565b92915050565b600081359050611a908161288d565b92915050565b600081359050611aa5816128a4565b92915050565b60008060008060808587031215611ac157600080fd5b6000611acf87828801611a6c565b9450506020611ae087828801611a96565b9350506040611af187828801611a96565b9250506060611b0287828801611a96565b91505092959194509250565b600060208284031215611b2057600080fd5b6000611b2e84828501611a96565b91505092915050565b60008060408385031215611b4a57600080fd5b6000611b5885828601611a96565b9250506020611b6985828601611a81565b9150509250929050565b60008060408385031215611b8657600080fd5b6000611b9485828601611a96565b9250506020611ba585828601611a96565b9150509250929050565b60008060008060808587031215611bc557600080fd5b6000611bd387828801611a96565b9450506020611be487828801611a96565b9350506040611bf587828801611a81565b9250506060611c0687828801611a96565b91505092959194509250565b6000611c1e8383611d1a565b60208301905092915050565b611c3381612755565b82525050565b611c42816126fc565b82525050565b6000611c538261265e565b611c5d8185612699565b9350611c6883612639565b8060005b83811015611c99578151611c808882611c12565b9750611c8b8361267f565b925050600181019050611c6c565b5085935050505092915050565b6000611cb182612669565b611cbb8185612699565b9350611cc683612649565b8060005b83811015611cfe57611cdb82612838565b611ce58882611c12565b9750611cf08361268c565b925050600181019050611cca565b5085935050505092915050565b611d1481612767565b82525050565b611d2381612721565b82525050565b6000611d3482612674565b611d3e81856126aa565b9350611d4e81856020860161279d565b611d578161284b565b840191505092915050565b6000611d6f6010836126aa565b91507f496e76616c6964204f72646572204964000000000000000000000000000000006000830152602082019050919050565b6000611daf602b836126aa565b91507f4e756d626572206f662076616363696e65732073686f756c642062652067726560008301527f61746572207468616e20300000000000000000000000000000000000000000006020830152604082019050919050565b6000611e156014836126aa565b91507f507269636520616c72656164792071756f7465640000000000000000000000006000830152602082019050919050565b6000611e55604a836126aa565b91507f5472616e73706f727465722073686f756c642068617665206465706f7369746560008301527f642074686520636f7374206f662076616363696e657320746f207265636f766560208301527f7220746865206c6f7374000000000000000000000000000000000000000000006040830152606082019050919050565b6000611ee16014836126aa565b91507f496e76616c6964206f72646572205374617475730000000000000000000000006000830152602082019050919050565b6000611f21602f836126aa565b91507f546f74616c206f7264657220616d6f756e74206d757374206265206465706f7360008301527f6974656420696e20616476616e636500000000000000000000000000000000006020830152604082019050919050565b6000611f876016836126aa565b91507f496e76616c69642073656e646572206163636f756e74000000000000000000006000830152602082019050919050565b6000611fc7601a836126aa565b91507f4f72646572207375636365737366756c6c7920637265617465640000000000006000830152602082019050919050565b60006120076010836126aa565b91507f496e76616c696420637573746f6d6572000000000000000000000000000000006000830152602082019050919050565b60006120476014836126aa565b91507f496e76616c6964204f72646572205374617475730000000000000000000000006000830152602082019050919050565b60006120876014836126aa565b91507f496e76616c6964204d616e7566616374757265720000000000000000000000006000830152602082019050919050565b6000610240830160008301516120d36000860182612470565b5060208301516120e66020860182611c39565b5060408301516120f96040860182611c39565b50606083015161210c6060860182611c39565b50608083015161211f6080860182612470565b5060a083015161213260a0860182612470565b5060c083015161214560c0860182612470565b5060e083015161215860e0860182612470565b5061010083015161216d610100860182612470565b50610120830151612182610120860182611d1a565b50610140830151612197610140860182612470565b506101608301516121ac610160860182612470565b506101808301516121c1610180860182612470565b506101a08301516121d66101a0860182612470565b506101c08301516121eb6101c0860182612470565b506101e08301516122006101e0860182612470565b5061020083015184820361020086015261221a8282611c48565b915050610220830151612231610220860182611d0b565b508091505092915050565b6000610240830160008084015490506122548161281e565b6122616000870182612470565b5060018401549050612272816127d0565b61227f6020870182611c39565b5060028401549050612290816127d0565b61229d6040870182611c39565b50600384015490506122ae816127d0565b6122bb6060870182611c39565b50600484015490506122cc8161281e565b6122d96080870182612470565b50600584015490506122ea8161281e565b6122f760a0870182612470565b50600684015490506123088161281e565b61231560c0870182612470565b50600784015490506123268161281e565b61233360e0870182612470565b50600884015490506123448161281e565b612352610100870182612470565b506009840154905061236381612804565b612371610120870182611d1a565b50600a84015490506123828161281e565b612390610140870182612470565b50600b84015490506123a18161281e565b6123af610160870182612470565b50600c84015490506123c08161281e565b6123ce610180870182612470565b50600d84015490506123df8161281e565b6123ed6101a0870182612470565b50600e84015490506123fe8161281e565b61240c6101c0870182612470565b50600f840154905061241d8161281e565b61242b6101e0870182612470565b50601084018583036102008701526124438382611ca6565b92505060118401549050612456816127ea565b612464610220870182611d0b565b50819250505092915050565b6124798161274b565b82525050565b60006060820190506124946000830185611c2a565b81810360208301526124a681846120ba565b905081810360408301526124b981611fba565b90509392505050565b600060208201905081810360008301526124db81611d62565b9050919050565b600060208201905081810360008301526124fb81611da2565b9050919050565b6000602082019050818103600083015261251b81611e08565b9050919050565b6000602082019050818103600083015261253b81611e48565b9050919050565b6000602082019050818103600083015261255b81611ed4565b9050919050565b6000602082019050818103600083015261257b81611f14565b9050919050565b6000602082019050818103600083015261259b81611f7a565b9050919050565b600060208201905081810360008301526125bb81611ffa565b9050919050565b600060208201905081810360008301526125db8161203a565b9050919050565b600060208201905081810360008301526125fb8161207a565b9050919050565b6000604082019050818103600083015261261c818561223c565b905081810360208301526126308184611d29565b90509392505050565b6000819050602082019050919050565b60008190508160005260206000209050919050565b600081519050919050565b600081549050919050565b600081519050919050565b6000602082019050919050565b6000600182019050919050565b600082825260208201905092915050565b600082825260208201905092915050565b600073ffffffffffffffffffffffffffffffffffffffff82169050919050565b600060ff82169050919050565b6000819050919050565b6000819050919050565b60006127078261272b565b9050919050565b600081905061271c82612869565b919050565b6000819050919050565b600073ffffffffffffffffffffffffffffffffffffffff82169050919050565b6000819050919050565b600061276082612779565b9050919050565b60006127728261270e565b9050919050565b60006127848261278b565b9050919050565b60006127968261272b565b9050919050565b60005b838110156127bb5780820151818401526020810190506127a0565b838111156127ca576000848401525b50505050565b60006127e36127de8361285c565b6126bb565b9050919050565b60006127fd6127f88361285c565b6126db565b9050919050565b60006128176128128361285c565b6126e8565b9050919050565b600061283161282c8361285c565b6126f2565b9050919050565b60006128448254612804565b9050919050565b6000601f19601f8301169050919050565b60008160001c9050919050565b6009811061287357fe5b50565b61287f816126fc565b811461288a57600080fd5b50565b61289681612721565b81146128a157600080fd5b50565b6128ad8161274b565b81146128b857600080fd5b5056fe4f7264657220416363657074656420776974682070656e616c746965732e2050656e616c7479206368617267657320726566756e64656420746f20796f7572206163636f75742064756520746f20746865206c6174652064656c69766572792e4f726465722072656a65637465642064756520746f206e6f74206d656574696e6720726563636f6d656e6465642074656d7072657475726520636f6e646974696f6e732e20596f7572206465706f7369742077617320726566756e646564a365627a7a72315820bc51003d103cd25b414438e40fa7db99bb1624924b0ddc87aada26f3dc8aab4d6c6578706572696d656e74616cf564736f6c63430005100040",
  "source": "// SPDX-License-Identifier: MIT\npragma solidity >=0.4.22 <0.9.0;\npragma experimental ABIEncoderV2;\n\ncontract supplyChain {\n    constructor() public {\n\ncreateEntities();\n\n    }\n\n    struct Manufacturer {\n        address payable account;\n        string name;\n        uint256 balance;\n    }\n\n    struct Customer {\n        address payable account;\n        string name;\n        uint256 balance;\n    }\n\n    struct Transporter {\n        address payable account;\n        string name;\n        uint256 balance;\n    }\n\n    enum OrderStatus {\n        REQUESTED,\n        PRICE_QUOTED,\n        TRANSPORT_QUOTED,\n        CUSTOMER_CONFIRMED,\n        TRANSPORTED_CONFIRMED,\n        DISPATCHED,\n        DELIVERED,\n        ACCEPTED,\n        REJECTED\n    }\n\n    struct Order {\n        uint256 orderId;\n        address payable manufacturer;\n        address payable customer;\n        address payable transporter;\n        uint256 orderdAt;\n        uint256 customerConfirmedAt;\n        uint256 transporterConfirmedAt;\n        uint256 maxLeadTime;\n        uint256 deliveredAt;\n        int256 reccomendedTemp;\n        uint256 maxExeedAllowed;\n        uint256 numberOfVaccines;\n        uint256 vaccineCost;\n        uint256 totalAmount;\n        uint256 transportCost;\n        uint256 lateDeliveryPanalty;\n        int256[] tempreture;\n        OrderStatus status;\n    }\n\n    mapping(address => Manufacturer) internal manufacturers;\n    mapping(address => Customer) internal customers;\n    mapping(address => Transporter) internal transportes;\n    mapping(uint256 => Order) internal orders;\n    uint256 nextOrderId = 0;\n\n    event OrderCreated(address from, Order order, string message);\n\n    event OrderRejected(Order order, string message);\n\n    event OrderAccepted(Order order, string message);\n\n\n\n    function createEntities() internal {\n        Manufacturer memory prod =\n            Manufacturer(\n                0x2c913FDcc9BBDAE915b05C9B4355fAFf1D8c464a,\n                \"Pfizer\",\n                0\n            );\n        manufacturers[prod.account] = prod;\n\n        Customer memory customer =\n            Customer(\n                0x9EeBA9a1c21C671d8aAce0A2E593Af7D21B02023,\n                \"Sri Lanka Govenrment\",\n                0\n            );\n        customers[customer.account] = customer;\n\n        Transporter memory transporter =\n            Transporter(0x5Ab5B3abdd85be9CAa19ec38aa461827ED15dB7c, \"DHL\", 0);\n        transportes[transporter.account] = transporter;\n    }\n\n    function createOrder(\n        address payable manufacturer,\n        uint256 numberOfVacines,\n        uint256 leadTime,\n        uint256 latePenalty\n    ) public {\n        require(\n            customers[msg.sender].account == msg.sender,\n            \"Invalid customer\"\n        );\n        require(\n            manufacturers[manufacturer].account == manufacturer,\n            \"Invalid Manufacturer\"\n        );\n        require(\n            numberOfVacines > 0,\n            \"Number of vaccines should be greater than 0\"\n        );\n\n        nextOrderId++;\n        Order memory order;\n        order.orderId = nextOrderId;\n        order.customer = msg.sender;\n        order.manufacturer = manufacturer;\n        order.orderdAt = block.timestamp;\n        order.numberOfVaccines = numberOfVacines;\n        order.maxLeadTime = leadTime;\n        order.maxExeedAllowed = 5;\n        order.lateDeliveryPanalty = latePenalty;\n        order.status = OrderStatus.REQUESTED;\n        orders[nextOrderId] = order;\n\n        emit OrderCreated(msg.sender, order, \"Order successfully created\");\n    }\n\n    function quotePrice(\n        uint256 orderId,\n        uint256 price,\n        int256 tempreture,\n        uint256 maxExeeds\n    ) public {\n        Order storage orderCreated = orders[orderId];\n        require(orderCreated.orderId > 0, \"Invalid Order Id\");\n        require(\n            orderCreated.manufacturer == msg.sender,\n            \"Invalid sender account\"\n        );\n        require(\n            orderCreated.status == OrderStatus.REQUESTED,\n            \"Price already quoted\"\n        );\n        orderCreated.vaccineCost = price * (1 ether);\n        orderCreated.reccomendedTemp = tempreture;\n        orderCreated.maxExeedAllowed = maxExeeds;\n        orderCreated.status = OrderStatus.PRICE_QUOTED;\n    }\n\n    function quoteTransport(uint256 orderId, uint256 price) public {\n        Order storage orderCreated = orders[orderId];\n        require(orderCreated.orderId > 0, \"Invalid Order Id\");\n        require(\n            transportes[msg.sender].account == msg.sender,\n            \"Invalid sender account\"\n        );\n        require(\n            orderCreated.status == OrderStatus.PRICE_QUOTED,\n            \"Invalid Order Status\"\n        );\n\n        orderCreated.transportCost = price * (1 ether);\n        orderCreated.transporter = msg.sender;\n        orderCreated.totalAmount =\n            orderCreated.vaccineCost +\n            orderCreated.transportCost;\n        orderCreated.status = OrderStatus.TRANSPORT_QUOTED;\n    }\n\n     function confirmOrder(uint256 orderId) public payable {\n        Order storage orderCreated = orders[orderId];\n        require(orderCreated.orderId > 0, \"Invalid Order Id\");\n        require(orderCreated.customer == msg.sender, \"Invalid sender account\");\n        require(\n            orderCreated.status == OrderStatus.TRANSPORT_QUOTED,\n            \"Invalid order Status\"\n        );\n        require(\n            msg.value == orderCreated.totalAmount,\n            \"Total order amount must be deposited in advance\"\n        );\n\n        orderCreated.customerConfirmedAt = block.timestamp;\n        orderCreated.status = OrderStatus.CUSTOMER_CONFIRMED;\n        customers[msg.sender].balance = msg.value;\n    }\n\n     function confirmTransporter(uint256 orderId) public payable {\n        Order storage orderCreated = orders[orderId];\n        require(orderCreated.orderId > 0, \"Invalid Order Id\");\n        require(\n            orderCreated.transporter == msg.sender,\n            \"Invalid sender account\"\n        );\n        require(\n            orderCreated.status == OrderStatus.CUSTOMER_CONFIRMED,\n            \"Invalid order Status\"\n        );\n        require(\n            msg.value == orderCreated.vaccineCost,\n            \"Transporter should have deposited the cost of vaccines to recover the lost\"\n        );\n\n        orderCreated.transporterConfirmedAt = block.timestamp;\n        orderCreated.status = OrderStatus.TRANSPORTED_CONFIRMED;\n        customers[msg.sender].balance = msg.value;\n    }\n\n    function dispatchOrder(uint256 orderId) public payable {\n        Order storage orderCreated = orders[orderId];\n        require(orderCreated.orderId > 0, \"Invalid Order Id\");\n        require(\n            orderCreated.manufacturer == msg.sender,\n            \"Invalid sender account\"\n        );\n        require(\n            orderCreated.status == OrderStatus.TRANSPORTED_CONFIRMED,\n            \"Invalid order Status\"\n        );\n\n        orderCreated.status = OrderStatus.DISPATCHED;\n    }\n\n     function updateTempreature(uint256 orderId, int256 temp) public {\n        Order storage orderCreated = orders[orderId];\n        require(orderCreated.orderId > 0, \"Invalid Order Id\");\n        require(\n            orderCreated.transporter == msg.sender,\n            \"Invalid sender account\"\n        );\n        require(\n            orderCreated.status == OrderStatus.DISPATCHED,\n            \"Invalid order Status\"\n        );\n        orderCreated.tempreture.push(temp);\n    }\n\n    function completeOrder(uint256 orderId) public {\n        Order storage orderCreated = orders[orderId];\n        require(orderCreated.orderId > 0, \"Invalid Order Id\");\n        require(\n            orderCreated.transporter == msg.sender,\n            \"Invalid sender account\"\n        );\n        require(\n            orderCreated.status == OrderStatus.DISPATCHED,\n            \"Invalid order Status\"\n        );\n        orderCreated.status = OrderStatus.DELIVERED;\n    }\n\n    function receiveOrder(uint256 orderId) public payable {\n        Order storage orderCreated = orders[orderId];\n        require(orderCreated.orderId > 0, \"Invalid Order Id\");\n        require(orderCreated.customer == msg.sender, \"Invalid sender account\");\n        require(\n            orderCreated.status == OrderStatus.DELIVERED,\n            \"Invalid order Status\"\n        );\n\n        string memory message;\n\n        //Set delivered time\n        orderCreated.deliveredAt = block.timestamp;\n\n        //Check the tempreture\n        uint256 exceededTempCount = 0;\n        for (uint256 i; i < orderCreated.tempreture.length; i++) {\n            if (orderCreated.tempreture[i] > orderCreated.reccomendedTemp) {\n                exceededTempCount++;\n            }\n        }\n\n        //Reject order due to not meeting the tempreture conditions\n        if (exceededTempCount > orderCreated.maxExeedAllowed) {\n            //Pay back total cost to the customer\n            orderCreated.customer.transfer(orderCreated.totalAmount);\n\n            //Pay back cost of vaccines to the producer\n            orderCreated.manufacturer.transfer(orderCreated.vaccineCost);\n            orderCreated.status = OrderStatus.REJECTED;\n            message = \"Order rejected due to not meeting reccomended tempreture conditions. Your deposit was refunded\";\n            emit OrderRejected(orderCreated, message);\n            return;\n        }\n\n        //Caclulate the lead time\n        uint256 timeGap =\n            orderCreated.deliveredAt - orderCreated.customerConfirmedAt;\n        uint256 timeGapInHours = timeGap / (1000 * 60 * 60);\n\n        uint256 penaltyAmount = 0;\n        //Get penalty if applicable\n        if (timeGapInHours > orderCreated.maxLeadTime) {\n            //get penalty from transporter\n            penaltyAmount =\n                (orderCreated.totalAmount * orderCreated.lateDeliveryPanalty) /\n                100;\n            orderCreated.customer.transfer(penaltyAmount);\n\n            message = \"Order Accepted with penalties. Penalty charges refunded to your accout due to the late delivery.\";\n        }\n\n        //Pay vaccine cost to the producer\n        orderCreated.manufacturer.transfer(orderCreated.vaccineCost);\n\n        //Pay transport cost+ initial deposit to the transporter\n        orderCreated.transporter.transfer(\n            orderCreated.transportCost +\n                transportes[orderCreated.transporter].balance -\n                penaltyAmount\n        );\n        orderCreated.status = OrderStatus.ACCEPTED;\n        if (bytes(message).length == 0) {\n            message = \" Order is accepted..\";\n        }\n\n        emit OrderAccepted(orderCreated, message);\n    }\n\n}\n",
  "sourcePath": "C:/Users/ASUS/Desktop/blockchain/contracts/supplyChain.sol",
  "compiler": {
    "name": "solc",
    "version": "0.5.16+commit.9c3226ce.Emscripten.clang"
  },
  "schemaVersion": "3.3.4",
  "updatedAt": "2021-02-28T20:42:03.278Z",
  "networkType": "ethereum",
  "devdoc": {
    "methods": {}
  },
  "userdoc": {
    "methods": {}
  }
}